{
  "contractName": "Wallet",
  "abi": [
    {
      "anonymous": false,
      "inputs": [
        {
          "indexed": true,
          "internalType": "address",
          "name": "previousOwner",
          "type": "address"
        },
        {
          "indexed": true,
          "internalType": "address",
          "name": "newOwner",
          "type": "address"
        }
      ],
      "name": "OwnershipTransferred",
      "type": "event"
    },
    {
      "anonymous": false,
      "inputs": [
        {
          "indexed": false,
          "internalType": "address",
          "name": "sender",
          "type": "address"
        },
        {
          "indexed": false,
          "internalType": "bytes32",
          "name": "ticker",
          "type": "bytes32"
        },
        {
          "indexed": false,
          "internalType": "address",
          "name": "tokenAddress",
          "type": "address"
        }
      ],
      "name": "tokenAdded",
      "type": "event"
    },
    {
      "inputs": [
        {
          "internalType": "address",
          "name": "",
          "type": "address"
        },
        {
          "internalType": "bytes32",
          "name": "",
          "type": "bytes32"
        }
      ],
      "name": "balances",
      "outputs": [
        {
          "internalType": "uint256",
          "name": "",
          "type": "uint256"
        }
      ],
      "stateMutability": "view",
      "type": "function",
      "constant": true
    },
    {
      "inputs": [],
      "name": "owner",
      "outputs": [
        {
          "internalType": "address",
          "name": "",
          "type": "address"
        }
      ],
      "stateMutability": "view",
      "type": "function",
      "constant": true
    },
    {
      "inputs": [],
      "name": "renounceOwnership",
      "outputs": [],
      "stateMutability": "nonpayable",
      "type": "function"
    },
    {
      "inputs": [
        {
          "internalType": "uint256",
          "name": "",
          "type": "uint256"
        }
      ],
      "name": "tokenList",
      "outputs": [
        {
          "internalType": "bytes32",
          "name": "",
          "type": "bytes32"
        }
      ],
      "stateMutability": "view",
      "type": "function",
      "constant": true
    },
    {
      "inputs": [
        {
          "internalType": "bytes32",
          "name": "",
          "type": "bytes32"
        }
      ],
      "name": "tokenMapping",
      "outputs": [
        {
          "internalType": "bytes32",
          "name": "ticker",
          "type": "bytes32"
        },
        {
          "internalType": "address",
          "name": "tokenAddress",
          "type": "address"
        }
      ],
      "stateMutability": "view",
      "type": "function",
      "constant": true
    },
    {
      "inputs": [
        {
          "internalType": "address",
          "name": "newOwner",
          "type": "address"
        }
      ],
      "name": "transferOwnership",
      "outputs": [],
      "stateMutability": "nonpayable",
      "type": "function"
    },
    {
      "inputs": [
        {
          "internalType": "bytes32",
          "name": "ticker",
          "type": "bytes32"
        },
        {
          "internalType": "address",
          "name": "tokenAddress",
          "type": "address"
        }
      ],
      "name": "addToken",
      "outputs": [],
      "stateMutability": "nonpayable",
      "type": "function"
    },
    {
      "inputs": [
        {
          "internalType": "uint256",
          "name": "amount",
          "type": "uint256"
        },
        {
          "internalType": "bytes32",
          "name": "ticker",
          "type": "bytes32"
        }
      ],
      "name": "deposit",
      "outputs": [],
      "stateMutability": "nonpayable",
      "type": "function"
    },
    {
      "inputs": [
        {
          "internalType": "uint256",
          "name": "amount",
          "type": "uint256"
        },
        {
          "internalType": "bytes32",
          "name": "ticker",
          "type": "bytes32"
        }
      ],
      "name": "withdraw",
      "outputs": [],
      "stateMutability": "nonpayable",
      "type": "function"
    }
  ],
  "bytecode": "0x608060405234801561001057600080fd5b5061002d61002261003260201b60201c565b61003a60201b60201c565b6100fe565b600033905090565b60008060009054906101000a900473ffffffffffffffffffffffffffffffffffffffff169050816000806101000a81548173ffffffffffffffffffffffffffffffffffffffff021916908373ffffffffffffffffffffffffffffffffffffffff1602179055508173ffffffffffffffffffffffffffffffffffffffff168173ffffffffffffffffffffffffffffffffffffffff167f8be0079c531659141344cd1fd0a4f28419497f9722a3daafe3b4186f6b6457e060405160405180910390a35050565b6111ec8061010d6000396000f3fe608060405234801561001057600080fd5b50600436106100935760003560e01c80639776aacf116100665780639776aacf146101215780639ead72221461013d578063a8d2021a1461016d578063c9630cb014610189578063f2fde38b146101a557610093565b80631f14df6914610098578063667cb4ba146100c8578063715018a6146100f95780638da5cb5b14610103575b600080fd5b6100b260048036038101906100ad9190610bf6565b6101c1565b6040516100bf9190610c4f565b60405180910390f35b6100e260048036038101906100dd9190610c6a565b6101e6565b6040516100f0929190610cb5565b60405180910390f35b61010161022a565b005b61010b61023e565b6040516101189190610cde565b60405180910390f35b61013b60048036038101906101369190610cf9565b610267565b005b61015760048036038101906101529190610d65565b61039f565b6040516101649190610d92565b60405180910390f35b61018760048036038101906101829190610dad565b6103c3565b005b6101a3600480360381019061019e9190610dad565b6106dc565b005b6101bf60048036038101906101ba9190610ded565b610964565b005b6003602052816000526040600020602052806000526040600020600091509150505481565b60016020528060005260406000206000915090508060000154908060010160009054906101000a900473ffffffffffffffffffffffffffffffffffffffff16905082565b6102326109e7565b61023c6000610a65565b565b60008060009054906101000a900473ffffffffffffffffffffffffffffffffffffffff16905090565b61026f6109e7565b60405180604001604052808381526020018273ffffffffffffffffffffffffffffffffffffffff16815250600160008481526020019081526020016000206000820151816000015560208201518160010160006101000a81548173ffffffffffffffffffffffffffffffffffffffff021916908373ffffffffffffffffffffffffffffffffffffffff16021790555090505060028290806001815401808255809150506001900390600052602060002001600090919091909150557f9a2a1b1ffc1846bcd0f860f702c7dde62cba99c9e07870aa04d6ae9c4796a25533836001600086815260200190815260200160002060010160009054906101000a900473ffffffffffffffffffffffffffffffffffffffff1660405161039393929190610e1a565b60405180910390a15050565b600281815481106103af57600080fd5b906000526020600020016000915090505481565b80600073ffffffffffffffffffffffffffffffffffffffff166001600083815260200190815260200160002060010160009054906101000a900473ffffffffffffffffffffffffffffffffffffffff1673ffffffffffffffffffffffffffffffffffffffff1603610469576040517f08c379a000000000000000000000000000000000000000000000000000000000815260040161046090610eae565b60405180910390fd5b82600360003373ffffffffffffffffffffffffffffffffffffffff1673ffffffffffffffffffffffffffffffffffffffff16815260200190815260200160002060008481526020019081526020016000205410156104fc576040517f08c379a00000000000000000000000000000000000000000000000000000000081526004016104f390610f1a565b60405180910390fd5b600073ffffffffffffffffffffffffffffffffffffffff166001600084815260200190815260200160002060010160009054906101000a900473ffffffffffffffffffffffffffffffffffffffff1673ffffffffffffffffffffffffffffffffffffffff160361056b57600080fd5b6105ce83600360003373ffffffffffffffffffffffffffffffffffffffff1673ffffffffffffffffffffffffffffffffffffffff168152602001908152602001600020600085815260200190815260200160002054610b2990919063ffffffff16565b600360003373ffffffffffffffffffffffffffffffffffffffff1673ffffffffffffffffffffffffffffffffffffffff1681526020019081526020016000206000848152602001908152602001600020819055506001600083815260200190815260200160002060010160009054906101000a900473ffffffffffffffffffffffffffffffffffffffff1673ffffffffffffffffffffffffffffffffffffffff1663a9059cbb33856040518363ffffffff1660e01b8152600401610693929190610f3a565b6020604051808303816000875af11580156106b2573d6000803e3d6000fd5b505050506040513d601f19601f820116820180604052508101906106d69190610f9b565b50505050565b80600073ffffffffffffffffffffffffffffffffffffffff166001600083815260200190815260200160002060010160009054906101000a900473ffffffffffffffffffffffffffffffffffffffff1673ffffffffffffffffffffffffffffffffffffffff1603610782576040517f08c379a000000000000000000000000000000000000000000000000000000000815260040161077990610eae565b60405180910390fd5b600073ffffffffffffffffffffffffffffffffffffffff166001600084815260200190815260200160002060010160009054906101000a900473ffffffffffffffffffffffffffffffffffffffff1673ffffffffffffffffffffffffffffffffffffffff16036107f157600080fd5b61085483600360003373ffffffffffffffffffffffffffffffffffffffff1673ffffffffffffffffffffffffffffffffffffffff168152602001908152602001600020600085815260200190815260200160002054610b3f90919063ffffffff16565b600360003373ffffffffffffffffffffffffffffffffffffffff1673ffffffffffffffffffffffffffffffffffffffff1681526020019081526020016000206000848152602001908152602001600020819055506001600083815260200190815260200160002060010160009054906101000a900473ffffffffffffffffffffffffffffffffffffffff1673ffffffffffffffffffffffffffffffffffffffff166323b872dd3330866040518463ffffffff1660e01b815260040161091b93929190610fc8565b6020604051808303816000875af115801561093a573d6000803e3d6000fd5b505050506040513d601f19601f8201168201806040525081019061095e9190610f9b565b50505050565b61096c6109e7565b600073ffffffffffffffffffffffffffffffffffffffff168173ffffffffffffffffffffffffffffffffffffffff16036109db576040517f08c379a00000000000000000000000000000000000000000000000000000000081526004016109d290611071565b60405180910390fd5b6109e481610a65565b50565b6109ef610b55565b73ffffffffffffffffffffffffffffffffffffffff16610a0d61023e565b73ffffffffffffffffffffffffffffffffffffffff1614610a63576040517f08c379a0000000000000000000000000000000000000000000000000000000008152600401610a5a906110dd565b60405180910390fd5b565b60008060009054906101000a900473ffffffffffffffffffffffffffffffffffffffff169050816000806101000a81548173ffffffffffffffffffffffffffffffffffffffff021916908373ffffffffffffffffffffffffffffffffffffffff1602179055508173ffffffffffffffffffffffffffffffffffffffff168173ffffffffffffffffffffffffffffffffffffffff167f8be0079c531659141344cd1fd0a4f28419497f9722a3daafe3b4186f6b6457e060405160405180910390a35050565b60008183610b37919061112c565b905092915050565b60008183610b4d9190611160565b905092915050565b600033905090565b600080fd5b600073ffffffffffffffffffffffffffffffffffffffff82169050919050565b6000610b8d82610b62565b9050919050565b610b9d81610b82565b8114610ba857600080fd5b50565b600081359050610bba81610b94565b92915050565b6000819050919050565b610bd381610bc0565b8114610bde57600080fd5b50565b600081359050610bf081610bca565b92915050565b60008060408385031215610c0d57610c0c610b5d565b5b6000610c1b85828601610bab565b9250506020610c2c85828601610be1565b9150509250929050565b6000819050919050565b610c4981610c36565b82525050565b6000602082019050610c646000830184610c40565b92915050565b600060208284031215610c8057610c7f610b5d565b5b6000610c8e84828501610be1565b91505092915050565b610ca081610bc0565b82525050565b610caf81610b82565b82525050565b6000604082019050610cca6000830185610c97565b610cd76020830184610ca6565b9392505050565b6000602082019050610cf36000830184610ca6565b92915050565b60008060408385031215610d1057610d0f610b5d565b5b6000610d1e85828601610be1565b9250506020610d2f85828601610bab565b9150509250929050565b610d4281610c36565b8114610d4d57600080fd5b50565b600081359050610d5f81610d39565b92915050565b600060208284031215610d7b57610d7a610b5d565b5b6000610d8984828501610d50565b91505092915050565b6000602082019050610da76000830184610c97565b92915050565b60008060408385031215610dc457610dc3610b5d565b5b6000610dd285828601610d50565b9250506020610de385828601610be1565b9150509250929050565b600060208284031215610e0357610e02610b5d565b5b6000610e1184828501610bab565b91505092915050565b6000606082019050610e2f6000830186610ca6565b610e3c6020830185610c97565b610e496040830184610ca6565b949350505050565b600082825260208201905092915050565b7f546f6b656e20646f65736e277420657869737400000000000000000000000000600082015250565b6000610e98601383610e51565b9150610ea382610e62565b602082019050919050565b60006020820190508181036000830152610ec781610e8b565b9050919050565b7f42616c616e63657320617265206e6f742073756666696369656e740000000000600082015250565b6000610f04601b83610e51565b9150610f0f82610ece565b602082019050919050565b60006020820190508181036000830152610f3381610ef7565b9050919050565b6000604082019050610f4f6000830185610ca6565b610f5c6020830184610c40565b9392505050565b60008115159050919050565b610f7881610f63565b8114610f8357600080fd5b50565b600081519050610f9581610f6f565b92915050565b600060208284031215610fb157610fb0610b5d565b5b6000610fbf84828501610f86565b91505092915050565b6000606082019050610fdd6000830186610ca6565b610fea6020830185610ca6565b610ff76040830184610c40565b949350505050565b7f4f776e61626c653a206e6577206f776e657220697320746865207a65726f206160008201527f6464726573730000000000000000000000000000000000000000000000000000602082015250565b600061105b602683610e51565b915061106682610fff565b604082019050919050565b6000602082019050818103600083015261108a8161104e565b9050919050565b7f4f776e61626c653a2063616c6c6572206973206e6f7420746865206f776e6572600082015250565b60006110c7602083610e51565b91506110d282611091565b602082019050919050565b600060208201905081810360008301526110f6816110ba565b9050919050565b7f4e487b7100000000000000000000000000000000000000000000000000000000600052601160045260246000fd5b600061113782610c36565b915061114283610c36565b925082821015611155576111546110fd565b5b828203905092915050565b600061116b82610c36565b915061117683610c36565b9250827fffffffffffffffffffffffffffffffffffffffffffffffffffffffffffffffff038211156111ab576111aa6110fd565b5b82820190509291505056fea26469706673582212201355cf5e254157fc222ab111c6b3c18ccae8b990a4a52e0111a25ac48c729a4864736f6c634300080e0033",
  "immutableReferences": {},
  "source": "//SPDX-License-Identifier: MIT\r\npragma solidity >=0.6.0 <0.8.15;\r\n\r\n// ERC20 Proposal's Interface Source\r\nimport \"../node_modules/@openzeppelin/contracts/token/ERC20/IERC20.sol\";\r\n// Safety Contract which is Overflow-proof Math Operations\r\nimport \"../node_modules/@openzeppelin/contracts/utils/math/SafeMath.sol\";\r\nimport \"../node_modules/@openzeppelin/contracts/access/Ownable.sol\";\r\n\r\ncontract Wallet is Ownable {\r\n  using SafeMath for uint256;\r\n  // Storage Design\r\n  struct Token {\r\n    bytes32 ticker;\r\n    address tokenAddress;\r\n  }\r\n  // dynamic structure between array and mapping\r\n  mapping(bytes32 => Token) public tokenMapping;\r\n  bytes32[] public tokenList;\r\n  // mapping: address given, amount of currency ticker symbols (bytes32) returns\r\n  /*\r\n   * currency symbols could be string type but when we need to compare\r\n   * values string is not the right type for comparison\r\n   */\r\n  mapping(address => mapping(bytes32 => uint256)) public balances;\r\n  // event: when a token added by user, token sumbol and token address\r\n  event tokenAdded(address sender, bytes32 ticker, address tokenAddress);\r\n  // modifier: control whether token exists\r\n  modifier tokenExist(bytes32 ticker) {\r\n    require(tokenMapping[ticker].tokenAddress != address(0), \"Token doesn't exist\");\r\n    _;\r\n  }\r\n  // function: add tokens, making external saves from gas consumption\r\n  function addToken(bytes32 ticker, address tokenAddress) onlyOwner external {\r\n    tokenMapping[ticker] = Token(ticker, tokenAddress);\r\n    tokenList.push(ticker);\r\n    emit tokenAdded(msg.sender, ticker, tokenMapping[ticker].tokenAddress);\r\n  }\r\n  // function: deposit\r\n  function deposit(uint amount, bytes32 ticker) tokenExist(ticker) external {\r\n    require(tokenMapping[ticker].tokenAddress != address(0));\r\n    balances[msg.sender][ticker] = balances[msg.sender][ticker].add(amount);\r\n    IERC20(tokenMapping[ticker].tokenAddress).transferFrom(msg.sender, address(this), amount);\r\n  }\r\n  // function: withdraw\r\n  /*\r\n   * gets amount and ticker values, updates the balance by substracting safely\r\n   * the amount from the total amount in the balances mapping, that belongs to\r\n   * the given address which is in Token struct that mapped to the ticker that\r\n   * passed as an id,\r\n   * and via ERC20 proposal interface, calls transfer function from ERC20\r\n   * teamplate contract, by passing the same ticker value to point to the\r\n   * tokenAddress in the Token struct, and make it transfered to the msg.sender\r\n   * who has interacted to the contract with their private key with the amount\r\n   * that they required and sent through parameters.\r\n   */\r\n  function withdraw(uint amount, bytes32 ticker) tokenExist(ticker) external {\r\n    require(balances[msg.sender][ticker] >= amount, \"Balances are not sufficient\");\r\n    require(tokenMapping[ticker].tokenAddress != address(0));\r\n    balances[msg.sender][ticker] = balances[msg.sender][ticker].sub(amount);\r\n    IERC20(tokenMapping[ticker].tokenAddress).transfer(msg.sender, amount);\r\n  }\r\n}\r\n",
  "sourcePath": "C:\\Users\\Uykusuz\\Documents\\MEGASync\\academy.ivanontech\\academy.moralis\\ethereum-sm-programming-201\\Project\\contracts\\Wallet.sol",
  "compiler": {
    "name": "solc",
    "version": "0.8.14+commit.80d49f37.Emscripten.clang"
  },
  "schemaVersion": "3.4.8",
  "updatedAt": "2022-08-01T13:33:51.503Z",
  "networkType": "ethereum",
  "devdoc": {
    "kind": "dev",
    "methods": {
      "owner()": {
        "details": "Returns the address of the current owner."
      },
      "renounceOwnership()": {
        "details": "Leaves the contract without owner. It will not be possible to call `onlyOwner` functions anymore. Can only be called by the current owner. NOTE: Renouncing ownership will leave the contract without an owner, thereby removing any functionality that is only available to the owner."
      },
      "transferOwnership(address)": {
        "details": "Transfers ownership of the contract to a new account (`newOwner`). Can only be called by the current owner."
      }
    },
    "version": 1
  },
  "userdoc": {
    "kind": "user",
    "methods": {},
    "version": 1
  }
}